:060000000A128A11F82F1C
:1009BA000130F0020030031CF103F10270087104E7
:1009CA00031DE82CE92CDD2C08007108F3007008DF
:1009DA00F2000310F30CF20C0310F30CF20C720881
:1009EA0083120313950097127018FC2C002D8312A2
:1009FA0003131716032D8312031317120800831209
:100A0A0003132218092D0D2D831203130914102D17
:100A1A008312031309102408880089146430F00033
:100A2A000030F1000A128A11DD240A128A11831297
:100A3A00031389106430F0000030F1000A128A11A1
:100A4A00DD240A128A110800003083120313A3005E
:100A5A000030A2000330A100FF30A0003308F000EC
:100A6A003408F100F201F3010030F7000030F6001B
:100A7A001330F5008830F4000A128A1160250A1230
:100A8A008A11730883120313A7007208A60071085B
:100A9A00A5007008A4000A128A1168260A128A118F
:100AAA00831203132108B0002008AF003008AE00FB
:100ABA002F08AD0008000030FC000030FB000030B9
:100ACA00FA000030F900701C6B2D6C2D832D740810
:100ADA00F907750803110318013E0319752DFA0762
:100AEA00760803110318013E03197C2DFB077708CA
:100AFA0003110318013E0319832DFC070130F80086
:100B0A000310F40DF50DF60DF70DF80B852D0130D8
:100B1A000310F30CF20CF10CF00CFF3E031D8D2DAB
:100B2A007308720471047004031D9C2D9D2D682D99
:100B3A007C08F3007B08F2007A08F1007908F000DB
:100B4A00080083120313A101FC1FAC2DAD2DB42D97
:100B5A00FB09FC09FB0A0319FC0AA101A10AFA1FF5
:100B6A00B72DB82DBD2DF909FA09F90A0319FA0AA0
:100B7A0079087A040319C22DC32DF22DA001A00A07
:100B8A00D12D01300310F90DFA0DFF3E031DC72DBB
:100B9A000130FD007D08A007FA1FD42DD52DC62DE2
:100BAA007A087C02031DDB2D79087B02031CDE2DEB
:100BBA00DF2DE52D7908FB027A08031CFC03FC02F1
:100BCA0001300310FA0CF90CFF3E031DE62D01302B
:100BDA00A002031DF12DF22DD52D21080319F62DA2
:100BEA00F72DFC2DFB09FC09FB0A0319FC0A7C08FA
:100BFA00FA007B08F9000800F601F11F052E062EFF
:100C0A000D2EF009F109F00A0319F10AF601F60AA4
:100C1A00F31F102E112E1A2EF209F309F20A0319E4
:100C2A00F30A0130F4007408F606F701F8017008B7
:100C3A0071040319212E222E592EF501F50A302EA0
:100C4A0001300310F00DF10DFF3E031D262E013079
:100C5A00F4007408F507F11F332E342E252E0130C7
:100C6A000310F70DF80DFF3E031D352E71087302B0
:100C7A00031D412E70087202031C442E452E4C2E71
:100C8A007008F2027108031CF303F30277140130AF
:100C9A000310F10CF00CFF3E031D4D2E0130F5023E
:100CAA00031D582E592E342E760803195D2E5E2EFA
:100CBA00632EF709F809F70A0319F80A7808F10008
:100CCA007708F0000800003083120313AB000030ED
:100CDA00AA000030A9000030A80023082204210439
:100CEA0020040319792E7A2EC72EAC01AC0A8A2E5B
:100CFA000130FD000310A00DA10DA20DA30DFD0BE7
:100D0A007F2E0130FD007D08AC07A31F8D2E8E2E8D
:100D1A007D2E0130FD000310A80DA90DAA0DAB0D03
:100D2A00FD0B902E23082702031DA52E220826025A
:100D3A00031DA52E21082502031DA52E2008240225
:100D4A00031CA82EA92EB82E2008A4022108031CD1
:100D5A00210FA5022208031C220FA6022308031C46
:100D6A00230FA702281401300310A30CA20CA10C14
:100D7A00A00CFF3E031DB92E0130AC02031DC62E86
:100D8A00C72E8E2E2B08A3002A08A2002908A1002C
:100D9A002808A0000800831203138701890188012B
:100DAA0083160313870189018801831203138501BE
:100DBA000130831603138500013083160317880058
:100DCA0089018130831203139F0080308316031335
:100DDA009F00053083120313920091017C30831621
:100DEA00031392000C308312031397000030A20001
:100DFA00A3003830A4000030A5000A128A11042585
:100E0A000A128A11003083120313A200A3000E30C3
:100E1A00A4000030A5000A128A1104250A128A11B8
:100E2A00003083120313A200A3000C30A400003088
:100E3A00A5000A128A1104250A128A1183120313C1
:100E4A009F149F18292F2A2F262F1E08B4008316B5
:100E5A0003131E0883120313B3003408F100330886
:100E6A00F0000A128A11EA240A128A110A128A1155
:100E7A0029250A128A11831203132E08B2002D089B
:100E8A00B1000030A200A3008030A4000030A50009
:100E9A000A128A1104250A128A11013083120313D5
:100EAA00A2000030A300E830F0000330F10032085D
:100EBA00F3003108F2000A128A1101260A128A1175
:100ECA007008303E83120313A40071080318013E10
:100EDA00003EA5000A128A1104250A128A1101305D
:100EEA0083120313A2000030A3000A30F900003075
:100EFA00FA006430F0000030F1003208F3003108E3
:100F0A00F2000A128A1101260A128A117108FC00DB
:100F1A007008FB000A128A11A6250A128A1179089A
:100F2A00303E83120313A4007A080318013E003EE0
:100F3A00A5000A128A1104250A128A1101308312A5
:100F4A000313A2000030A3000A30F9000030FA00AF
:100F5A000A30F0000030F1003208F3003108F200E4
:100F6A000A128A1101260A128A117108FC007008F5
:100F7A00FB000A128A11A6250A128A117908303E44
:100F8A0083120313A4007A080318013E003EA50049
:100F9A000A128A1104250A128A11013083120313D4
:100FAA00A2000030A3000A30F9000030FA0032082B
:100FBA00FC003108FB000A128A11A6250A128A11BE
:100FCA007908303E83120313A4007A080318013EFD
:100FDA00003EA5000A128A1104250A128A11232F3B
:100FEA000A128A11002883120313B301B401830180
:060FFA000A128A11D02E3C
:08400000FF3FFF3FFF3FFF3FC0
:04400E00E42CFF3F60
:00000001FF
