:060000000A128A110C280F
:10000800FE00030EF0000A08F1000A128A11D92B2B
:100018000A128A110F28FA01FB0183120313D9016E
:10002800DA01DB01DC01DD01DE0183010A128A113C
:100038001D28831203138501880189018316031380
:1000480088010910891009110A128A1171260A12E9
:100058008A110A128A11C5260A128A110A128A11ED
:10006800D3260A128A110A128A111B260A128A1129
:100078000B178B178312031309110A128A11B5265D
:100088000A128A11F60100300A128A113C260A1255
:100098008A110130F5008030F6000A128A11D02545
:1000A8000A128A1183120313CE01D001D601D70197
:1000B800D401D501D801D101831203135E03031DB6
:1000C800662867289428DE015C08031D6C286D28C3
:1000D80094280130DC00D801D1010A128A11B52612
:1000E8000A128A11F60100300A128A113C260A12F5
:1000F8008A112930F5008030F6000A128A11D025BD
:100108000A128A11033083120313CB008A30CA0003
:100118005530C900C90B8E28CA0B8E28CB0B8E28E8
:10012800831203135D03031D9A289B28B728DD015A
:100138005C080319A028A128B7285B080319A5287B
:10014800A7280130A8280030DB0051080319AD2882
:10015800AE28B7285508C8005408C7000A128A11E3
:1001680057250A128A11831203135C08031DBD2840
:10017800BE28BF2860280A128A1178220A128A111A
:10018800831203132708D3002608D2005608520208
:10019800F2005708031C570A5302F3000A128A1187
:1001A80083260A128A117308803AFF0080307F0282
:1001B800031DE028023072020318E328E428F62819
:1001C8008312031358080319EA28EB28F62832305B
:1001D80058020318F028F128FE280130C900490800
:1001E800D807FE28831203135308D7005208D600F5
:1001F800D801D80A323058020318032905290130DA
:1002080006290030CF004F0803190B290C292A2989
:1002180051080319102911291B2955085706031DD0
:1002280017295408560603191A291B292A29570879
:10023800D5005608D400D101D10A5508C800540881
:10024800C7000A128A1157250A128A11831203134A
:100258004F0803193029312933290915412909156E
:10026800823083120313CA00DD30C900C90B3A2952
:10027800CA0B3A298312031309110130C90049082E
:10028800CE0721304E02031C4A294B296229CE0190
:100298000A128A11DB240A128A1183120313260810
:1002A800CD002508CC0004304D02B03003194C02B3
:1002B80003185F29602962290530D0005008031906
:1002C800662967299029F60100300A128A113C260E
:1002D8000A128A111C30F5008030F6000A128A11C1
:1002E800D0250A128A11013083120313D002500854
:1002F800031D7F2980299029F60100300A128A11EE
:100308003C260A128A110F30F5008030F6000A12D6
:100318008A11D0250A128A11023083120313CB00E6
:100328000430CA00B930C900C90B9829CA0B9829EA
:10033800CB0B98299F2960280A128A110C2883124E
:100348000313C601C401AB1FAA29AB29B229C401F2
:10035800C40AAA09AB09AA0A0319AB0AC5012A08E3
:100368002B04031DB829B929ED293030BE0001300E
:10037800F9007908C507ED2945083E3E84000A3092
:10038800F2000030F3002B08F5002A08F4000A12E6
:100398008A113A240A128A117208303E83138000A7
:1003A8000130F900790883120313C5070A30A00049
:1003B8000030A1002B08A3002A08A2000A128A1103
:1003C80008230A128A11831203132108AB0020089C
:1003D800AA002B08803AFF0080307F02031DF6290F
:1003E80001302A02031CF929FA29022A043083124F
:1003F80003134502031C012A022AC029831203138E
:1004080044080319082A092A222A46082D3E84008E
:100418002D30831380000130F9007908C607222A9D
:100428000130C50245083E3E840083130008F900E8
:1004380046082D3E8400790880000F2A4508031DD0
:10044800262A272A142A46082D3E8400DF308313E3
:1004580080000130F9007908C6072C08031D352AE9
:10046800362A3B2A4330C2000030C3003F2A4630B8
:10047800C2000030C30046082D3E840042088000B8
:100488000130F9007908C60746082D3E840020305F
:1004980080000130F9007908C60746082D3E84001F
:1004A800203080000130F9007908C60746082D3E43
:1004B8008400203080000130F9007908C60746081A
:1004C8002D3E84008001F60101300A128A113C2673
:1004D8000A128A112D30F5000030F6000A128A112E
:1004E800D0250A128A110800003083120313B300C2
:1004F8000030B2000030B1000030B000B40100306C
:100508000A128A11A9250A128A1172088312031382
:10051800A8007308A900AA01AB012808B007290898
:1005280003110318013E03199A2AB1072A08031177
:100538000318013E0319A12AB2072B080311031857
:10054800013E0319A82AB3070D3083120313A9002B
:10055800FB30A800A80BAE2AA90BAE2A01308312E3
:100568000313A8002808B4070A303402031CBD2A64
:10057800BE2A832A0030F5000030F4000030F30072
:100588000A30F2003308F9003208F8003108F700A1
:100598003008F6000A128A1171230A128A117308A8
:1005A80083120313AD007208AC002C08F2002D086A
:1005B800F300F401F5010030F9000030F8000130D3
:1005C800F700F430F6000A128A1193240A128A11ED
:1005D800720883120313A8007308A9007408AA00FC
:1005E8007508AB000A300310AB0CAA0CA90CA80CB8
:1005F800FF3E031DF72A2908AF002808AE002F0880
:10060800A7002E08A600080083120313A501A11F46
:100618000E2B0F2B162BA009A109A00A0319A10A5A
:10062800A501A50AA31F192B1A2B232BA209A3097D
:10063800A20A0319A30A0130F8007808A506A60142
:10064800A7012008210403192A2B2B2B622BA401B4
:10065800A40A392B01300310A00DA10DFF3E031D84
:100668002F2B0130F8007808A407A11F3C2B3D2B45
:100678002E2B01300310A60DA70DFF3E031D3E2BA8
:1006880021082302031D4A2B20082202031C4D2B9C
:100698004E2B552B2008A2022108031CA303A302FA
:1006A800261401300310A10CA00CFF3E031D562B8D
:1006B8000130A402031D612B622B3D2B2508031971
:1006C800662B672B6C2BA609A709A60A0319A70A8C
:1006D8002708A1002608A000080000308312031391
:1006E800A4000030A3000030A2000030A10075086B
:1006F8007404730472040319822B832BD02BA50175
:10070800A50A932B0130A0000310F20DF30DF40D90
:10071800F50DA00B882B0130A0002008A507F51FB8
:10072800962B972B862B0130A0000310A10DA20D4C
:10073800A30DA40DA00B992B75087902031DAE2BF0
:1007480074087802031DAE2B73087702031DAE2BC5
:1007580072087602031CB12BB22BC12B7208F60269
:100768007308031C730FF7027408031C740FF80254
:100778007508031C750FF902211401300310F50CDC
:10078800F40CF30CF20CFF3E031DC22B0130A50242
:10079800031DCF2BD02B972B2408F5002308F4003A
:1007A8002208F3002108F20008008B1EDC2BDD2B49
:1007B800162C0B1DE02BE12B162C0B117B080319B3
:1007C800E62BE72B162C013083120313D9070318E5
:1007D800DA0A0030DA075C080319F32BF42B062C2D
:1007E8007A08031DF82BF92B062C02305A02DC304C
:1007F80003195902031C012C022C062C0130DD00C0
:100808000130FA0004305A02C43003195902031C9B
:100818000E2C0F2C162C5E08031D132C142C162CD2
:100828000130DE000B1E192C1A2C332C8B1C1D2CAE
:100838001E2C332C8B1083160313011F242C252CFC
:10084800312C0130FB0083120313D901DA01DE01D8
:10085800FA01831603130113332CFB0101177108E6
:100868008A00700E8300FE0E7E0E0900F801F51F47
:100878003E2C3F2C462CF409F509F40A0319F50A15
:10088800F801F80AF31F492C4A2C4F2CF209F309F6
:10089800F20A0319F30A720873040319542C552C2D
:1008A800842CF701F70A632C01300310F20DF30DC5
:1008B800FF3E031D592C0130F6007608F707F31F99
:1008C800662C672C582C73087502031D6D2C720852
:1008D8007402031C702C712C772C7208F4027308B4
:1008E800031CF503F50201300310F30CF20CFF3E74
:1008F800031D782C0130F702031D832C842C672CF0
:1009080078080319882C892C8E2CF409F509F40A27
:100918000319F50A7508F3007408F200080000309E
:1009280083120313A4000030A3000030A20000309B
:10093800A100721CA02CA12CB82C7608A10777085E
:1009480003110318013E0319AA2CA2077808031102
:100958000318013E0319B12CA307790803110318E2
:10096800013E0319B82CA4070130A0000310F60DAE
:10097800F70DF80DF90DA00BBA2C01300310F50C8A
:10098800F40CF30CF20CFF3E031DC22C7508740422
:1009980073047204031DD12CD22C9D2C2408F5005D
:1009A8002308F4002208F3002108F20008000130AF
:1009B8000A128A11A9250A128A11730883120313CD
:1009C800B0007208AF002F08F2003008F300F401FD
:1009D800F5010030F9000030F8001330F7008830D6
:1009E800F6000A128A1193240A128A1172088312D5
:1009F8000313A7007308A8007408A9007508AA00C3
:100A08000A300310AA0CA90CA80CA70CFF3E031D62
:100A1800052D2A08AE002908AD002808AC002708D3
:100A2800AB002C08A6002B08A5000800FF1B242DEE
:100A380083137F1883170008840A0319FF0A080024
:100A480005308A000408840A8207003448346F3469
:100A58006C3464342034423454344E3420343534C5
:100A680073342E342E340034543445344D345034D9
:100A780020342034203420342034203420342034CE
:100A880000344C344F345734203450344F345734B6
:100A9800453452342034203420340034543445341E
:100AA8004D3450340034831203135B0803195D2D51
:100AB8005E2D752D4808A9004708A8000A128A115A
:100AC80080250A128A11831203132908AB0028080B
:100AD800AA00AC01AC0A0A128A11A3210A128A11CF
:100AE8007F2D4808AB004708AA00AC010A128A11FA
:100AF800A3210A128A110800053083120313A000EB
:100B08000030A1002908F3002808F2000930F40099
:100B18000030F5000A128A11F6250A128A117308A4
:100B280083120313A3007208A2000A128A11082371
:100B38000A128A11831203132008203EA8002108F4
:100B48000318013E003EA9000800F600C330F40077
:100B58007408831203139F057608F400013003100C
:100B6800F40DFF3E031DB32D0310740DF500750839
:100B78009F040930F400F40BBF2DC22D8312031318
:100B88009F149F18C82DC92DC52D1E08F300831664
:100B980003131E08F2000800E52D7608FF0075080B
:100BA80084000A128A111A250A128A110A128A1155
:100BB800A5260A128A110130F5070318F60A003033
:100BC800F607760883120313FF00750884000A12DB
:100BD8008A111A250A128A11003A031DF42DF52DDF
:100BE800D12D0800F601F701721CFB2DFC2D022EF9
:100BF8007408F6070318F70A7508F7070130031099
:100C0800F40DF50DFF3E031D032E01300310F30C08
:100C1800F20CFF3E031D0A2E72087304031D152EE5
:100C2800162EF82D7708F3007608F20008001A301F
:100C3800F900F830F800F80B1F2EF90B1F2E0000F2
:100C480038300A128A115C260A128A110C300A12EC
:100C58008A115C260A128A1106300A128A115C2649
:100C68000A128A110A128A11B5260A128A11080074
:100C780083120313A00020080319432E442E4C2E80
:100C88007608C03EA200003003180130A300532E9E
:100C98007608803EA200003003180130A300220825
:100CA800A10021080A128A115C260A128A1108007A
:100CB800F500831203130910750888000A128A11B7
:100CC80094260A128A110330F4009730F300F30BCC
:100CD8006B2EF40B6B2E702E08000330831603174F
:100CE8008800890183160313051485149F1783123E
:100CF80003131F083F3980389F001F140800F31B97
:100D0800862E872E882E932E7209F4007309F5001B
:100D1800F40A0319F50A7408F2007508F3000800CC
:100D28008312031389141030F200F20B992E00007D
:100D38008312031389101030F200F20BA12E000069
:100D48000800F400831203130914740888000A12B7
:100D58008A1194260A128A112130F300F30BB22E5D
:100D6800080001300A128A115C260A128A1103301F
:100D7800F7009730F600F60BBF2EF70BBF2EC42EE8
:100D8800080083160313811281110108F83903380A
:100D980081008312031381018B160B11080083163F
:0E0DA80003130614811701178B100B16080099
:08400000FF3FFF3FFF3FFF3FC0
:04400E00E42CFF3F60
:00000001FF
