:060000000A128A11D82F3C
:100EF400483445344C344C344F3400340130F60219
:100F04000030031CF703F70276087704031D8B2FC8
:100F14008C2F802F0800831203138701103083164F
:100F2400031387008312031388010130831603130C
:100F34008800831603178901880120308312031364
:100F440094008316031394018312081CAA2FAB2F59
:100F5400A62F0818AE2FAF2FAB2FF801F901CC2F15
:100F64007808703E8400000893001030F6002730A3
:100F7400F7000A128A1180270A128A1183120313B6
:100F84008C1DC52FC62FC02F0130F8070318F90A8E
:100F94000030F9077808703E84000008031DD32F41
:100FA400D42FB22FA62F0A128A1100280A128A11EE
:100FB4007A270A128A11F0000A128A117B270A1270
:100FC4008A11F1000A128A117C270A128A11F2008E
:100FD4000A128A117D270A128A11F3000A128A1151
:100FE4007E270A128A11F4000A128A117F270A1234
:0C0FF4008A11F50083010A128A118D2F6A
:08400000FF3FFF3FFF3FFF3FC0
:04400E00E42CFF3F60
:00000001FF
