:060000000A128A11FC2F18
:100F5C00831203138801870107308316031388005B
:100F6C008030870083160317890188011930831696
:100F7C00031399001812181583160317871183167B
:100F8C0003139816831203139817081CCE2FCF2F18
:100F9C00DA2F0818D22FD32FCF2F0C1ED62FD72FE6
:100FAC00D32F41309900CB2F881CDD2FDE2FE92F5A
:100FBC008818E12FE22FDE2F0C1EE52FE62FE22FF3
:100FCC0042309900CB2F081DEC2FED2FF82F08196C
:100FDC00F02FF12FED2F0C1EF42FF52FF12F4330A6
:100FEC009900CB2FCB2F0A128A11002883010A12E9
:040FFC008A11AE2F79
:08400000FF3FFF3FFF3FFF3FC0
:04400E00E42CFF3F60
:00000001FF
