:060000000A128A11CC2F48
:100EC2004334483449345434543449340034633458
:100ED2007E088A007F0882000A128A1169270A1294
:100EE2008A118000840A04087D0603190034FF0A6F
:100EF2000319FE0A6D2F8312031387018501033044
:100F0200831603138500870183160317890188015D
:100F120083160313181283160317871183160313FC
:100F22001815193099009816831203139817051C87
:100F32009B2F9C2FA62F05189F2FA02F9C2F63302D
:100F420099000C1EA52FA62FA22F851CA92FAA2F10
:100F5200982F8518AD2FAE2FAA2FF801F901C02FB7
:100F62007808703E8400000899000C1EB92FBA2F31
:100F7200B62F0130F8070318F90A0030F90778088C
:100F8200703E84000008031DC72FC82FB12F982F71
:100F92000A128A1100280A128A1161270A128A117A
:100FA200F0000A128A1162270A128A11F1000A124B
:100FB2008A1163270A128A11F2000A128A1164271F
:100FC2000A128A11F3000A128A1165270A128A117B
:100FD200F4000A128A1166270A128A11F5000A120F
:100FE2008A1167270A128A11F6000A128A116827E3
:0E0FF2000A128A11F70083010A128A117C2F5D
:08400000FF3FFF3FFF3FFF3FC0
:04400E00E42CFF3F60
:00000001FF
