:060000000A128A111E2FF6
:100E3C0083010A128A11222F0A128A113E270A12E2
:100E4C008A110A128A1100282C2F2C2F0130F00243
:100E5C000030031CF103F102FF307106031D382F23
:100E6C00FF307006031D3B2F3C2F2C2F3D2F08000D
:100E7C00831203138801831603138801452F013055
:100E8C00F2000030F30072184C2F502F8312031312
:100E9C000814532F8312031308107218562F5A2F4D
:100EAC008312031388145D2F831203138810721896
:100EBC00602F642F831203130815672F83120313FB
:100ECC00081172186A2F6E2F831203138815712F55
:100EDC008312031388117218742F782F8312031343
:100EEC0008167B2F83120313081272187E2F822F81
:100EFC00831203138816852F83120313881272181A
:100F0C00882F8C2F8312031308178F2F8312031330
:100F1C0008137218922F962F831203138817992F88
:100F2C00831203138813A030F0008630F1000A12EC
:100F3C008A112A270A128A11F201F3017218A72FBB
:100F4C00AB2F831203130814AE2F83120313081054
:100F5C007218B12FB52F831203138814B82F831274
:100F6C00031388107218BB2FBF2F8312031308159D
:100F7C00C22F8312031308117218C52FC92F8312A5
:100F8C0003138815CC2F8312031388117218CF2FDB
:100F9C00D32F831203130816D62F831203130812B0
:100FAC007218D92FDD2F831203138816E02F8312AA
:100FBC00031388127218E32FE72F831203130817F9
:100FCC00EA2F8312031308137218ED2FF12F8312DB
:100FDC0003138817F42F831203138813A030F00027
:100FEC008630F1000A128A112A270A128A11452F1B
:040FFC00452F080075
:02400E00E42CA0
:00000001FF
