:060000000A128A11F32F21
:100E5A0064008001840A04060319003404062E2F54
:100E6A000130F4000030F5000030F6000030F700E1
:100E7A007408F0027508031C750F442F452FF10200
:100E8A007608031C760F4A2F4B2FF2027708031CB1
:100E9A00770F502F512FF3027308720471047004F4
:100EAA00031D582F592F352F080078185D2F612FF1
:100EBA00831203130914642F8312031309107A0887
:100ECA00880089140030F3000030F2000030F1008D
:100EDA000A30F0000A128A1135270A128A1183127F
:100EEA00031389100030F3000030F2000030F100E3
:100EFA000A30F0000A128A1135270A128A110800EC
:100F0A00831203138901880185018316031389015A
:100F1A008801203085008312031387011830831655
:100F2A00031387008316031789018801243083126B
:100F3A00031394008316031394010030F800F90098
:100F4A003830FA000030FB000A128A115A270A12B6
:100F5A008A110030F800F9000E30FA000030FB0068
:100F6A000A128A115A270A128A110030F800F90067
:100F7A008030FA000030FB000A128A115A270A123E
:100F8A008A118312031385128C1DCC2FCD2FC92FE2
:100F9A004008203E84001308831380000130F800C3
:100FAA000030F9004008203E84000008FC00FD01E2
:100FBA007C08FA007D08FB000A128A115A270A12D5
:100FCA008A11013083120313C0070318C10A0030C3
:100FDA00C1078C11C92F0A128A11002883132030E5
:100FEA00840042300A128A112D270A128A118301BB
:060FFA000A128A11852F86
:08400000FF3FFF3FFF3FFF3FC0
:04400E00E42CFF3F60
:00000001FF
