:060000000A128A11D82F3C
:100E2200483445344C344C344F3400340130F002F1
:100E32000030031CF103F10270087104031D222F1C
:100E4200232F172F080083120313870110308316F4
:100E520003138700831203138801FF30890083166E
:100E6200031389010730880083160317890188015B
:100E72002030831203139400831603139401831208
:100E8200081C442F452F722F0818482F492F452F31
:100E9200091089140915F201F301692F7208783ECD
:100EA2008400000893001030F0002730F1000A128D
:100EB2008A1117270A128A11831203138C1D622FBB
:100EC200632F5D2F0130F2070318F30A0030F30796
:100ED2007208783E84000008031D702F712F4F2F77
:100EE200402F881C752F762FA32F8818792F7A2FE1
:100EF200762F091489100915F401F5019A2F740847
:100F0200783E8400000893001030F0002730F10092
:100F12000A128A1117270A128A11831203138C1DCF
:100F2200932F942F8E2F0130F4070318F50A003007
:100F3200F5077408783E84000008031DA12FA22F34
:100F4200802F402F081DA62FA72FD42F0819AA2FB4
:100F5200AB2FA72F091489140911F601F701CB2F22
:100F62007608783E840000089300E830F0000330F1
:100F7200F1000A128A1117270A128A118312031327
:100F82008C1DC42FC52FBF2F0130F6070318F70A97
:100F92000030F7077608783E84000008031DD22F40
:100FA200D32FB12F402F402F0A128A1100280A1284
:100FB2008A1111270A128A11F8000A128A111227BD
:100FC2000A128A11F9000A128A1113270A128A11C7
:100FD200FA000A128A1114270A128A11FB000A1255
:100FE2008A1115270A128A11FC000A128A11162781
:0E0FF2000A128A11FD0083010A128A11242FAF
:08400000FF3FFF3FFF3FFF3FC0
:04400E00E42CFF3F60
:00000001FF
