:060000000A128A116B2FA9
:100ED600F001F101F201F30183010A128A11832F55
:100EE600752F752F0130F4020030031CF503F5024F
:100EF60075087404031D802F812F752F822F08001B
:100F060083120313850188018316031388010730B2
:100F160085008316031789018801912F71087004D3
:100F2600031D962F972FB72F83120313051C9C2F93
:100F36009D2FB72F9F2F9F2F0518A22FA32F9F2FCF
:100F4600A42F1030F4002730F5000A128A117327F7
:100F56000A128A118312031308140130F2070318C8
:100F6600F30A0030F307B72F73087204031DBC2F72
:100F7600BD2FDD2F83120313851CC22FC32FDD2F38
:100F8600C52FC52F8518C82FC92FC52FCA2F1030BA
:100F9600F4002730F5000A128A1173270A128A1103
:100FA6008312031388140130F0070318F10A003086
:100FB600F107DD2F83120313051DE22FE32F912F77
:100FC600E52FE52F0519E82FE92FE52FEA2F103039
:100FD600F4002730F5000A128A1173270A128A11C3
:100FE600F201F301F001F101831203138801912F3D
:0A0FF600912F912F0A128A11002892
:02400E00E42CA0
:00000001FF
