:100000000A128A11FA2C00308A000408840A820736
:100010000034593445344C344C344F345734003464
:10002000543449344D3445343D340034473452342B
:10003000453445344E34003452344534443400346D
:1009F40083010A128A11E22E0B1D012D022D0A2DEC
:100A04000B11833083120313810001300C2D0C2D44
:100A140000300C2D0800F201F301212D0A128A1175
:100A2400FE240A128A11003A0319192D1A2D212DB8
:100A34000130F2070318F30A0030F307212D71087F
:100A44007302031D272D70087202031C2A2D2B2DFF
:100A5400102D2C2D0800831203132018322D362D4F
:100A6400831203130914392D831203130910220866
:100A7400880089140130F0000030F1000A128A1154
:100A84000D250A128A118312031389100130F00014
:100A94000030F1000A128A110D250A128A11080089
:100AA40083120313A600732D0130A0000030A100AF
:100AB400260884000A128A1103200A128A11A4004B
:100AC400A5012408A2002508A3000A128A112D25D5
:100AD4000A128A11013083120313A4002408A60702
:100AE400732D260884000A128A1103200A128A111F
:100AF4000038031D7E2D7F2D562D802D080079088A
:100B040078040319862D872DBD2DFD010314FD0DD9
:100B1400972D01300310F80DF90DFF3E031D8C2DA8
:100B24000130FC007C08FD07972DF91F9A2D9B2DA1
:100B34008B2D9D2D9D2D79087B02031DA32D7808F7
:100B44007A02031CA62DA72DAE2D7808FA02790887
:100B5400031CFB03FB02AE2D01300310F90CF80C4F
:100B6400FF3E031DAF2D0130FD02031DBA2DBB2D29
:100B74009D2DBD2DBD2D7B08F901F9077A08F801DB
:100B8400F807C42D0800F501F60171087004031973
:100B9400CC2DCD2D0B2EF7010314F70DDD2D0130D7
:100BA4000310F00DF10DFF3E031DD22D0130F400B2
:100BB4007408F707DD2DF11FE02DE12DD12DE32D74
:100BC400E32D01300310F50DF60DFF3E031DE42D5A
:100BD40071087302031DF02D70087202031CF32DBB
:100BE400F42DFC2D7008F2027108031CF303F302C8
:100BF4007514FC2D01300310F10CF00CFF3E031DA5
:100C0400FD2D0130F702031D082E092EE32D0B2EB6
:100C14000B2E7608F101F1077508F001F007122E8A
:100C2400080083120313A9000030A0000030A100C3
:100C34000130A2000030A3000A128A112D250A12E5
:100C44008A11003083120313A0000030A100803009
:100C5400A2000030A3000A128A112D250A128A115B
:100C64008312031329080A128A1152250A128A11BF
:100C7400003083120313A0000030A100C030A20092
:100C84000030A3000A128A112D250A128A11083095
:100C94000A128A1152250A128A1183120313280890
:100CA400A501A5072708A401A4070A128A116C2626
:100CB4000A128A11013083120313A0000030A1002C
:100CC4007330A2000030A3000A128A112D250A12E3
:100CD4008A11080000308312031325020A30031915
:100CE4002402031C762E772ECD2E0130A000003076
:100CF400A1000A30F8000030F9000A30F00000309A
:100D0400F1002508F301F3072408F201F2070A129F
:100D14008A11C5250A128A117108FB01FB077008A4
:100D2400FA01FA070A128A1181250A128A1178082F
:100D3400303E83120313A20079080318013E003EDB
:100D4400A3000A128A112D250A128A110130831276
:100D54000313A0000030A1000A30F8000030F900AD
:100D64002508FB01FB072408FA01FA070A128A1175
:100D740081250A128A117808303E83120313A200D7
:100D840079080318013E003EA3000A128A112D259A
:100D94000A128A11E12E013083120313A0000030DD
:100DA400A1002408303EA20025080318013E003E9D
:100DB400A3000A128A112D250A128A11E12E0800B5
:100DC400831203138501831603138501831203130E
:100DD4008601831603138601831203138801831685
:100DE40003138801831203138901831603138901F2
:100DF40083160317890188010530831603138100C4
:100E040083308312031381000030A0000030A1005E
:100E14003830A2000030A3000A128A112D250A12CC
:100E24008A11003083120313A0000030A1000E3099
:100E3400A2000030A3000A128A112D250A128A1179
:100E4400003083120313A0000030A1000C30A20074
:100E54000030A3000A128A112D250A128A11831266
:100E64000313AD010530AE000030AF00AB01AC019F
:100E74000514851005112F08A801A8072E08A7013D
:100E8400A70714300A128A1113260A128A114A2F4C
:100E94000A128A11FE240A128A11003A0319532FE6
:100EA400542F4A2F013083120313AB070318AC0AE3
:100EB4000030AC0700302C027D3003192B020318DC
:100EC400642F652F672F4A2F4A2FAB01AC010130E5
:100ED400AE020030031CAF03AF022F082E04031D23
:100EE400742F752FC82FAD08031D792F7A2F912FDA
:100EF400AD010314AD0D0510851405110530AE00C8
:100F04000030AF002F08A801A8072E08A701A707E3
:100F140001300A128A1113260A128A114A2F8312E7
:100F240003132D08013A031D982F992FB12F023076
:100F3400AA002A08AD000510851005150A30AE0078
:100F44000030AF002F08A801A8072E08A701A707A3
:100F54000E300A128A1113260A128A114A2FAD0181
:100F64000514851005110530AE000030AF002F08C0
:100F7400A801A8072E08A701A70714300A128A118E
:100F840013260A128A114A2F4A2F4A2F003083123D
:100F94000313A0000030A100C030A2000030A30061
:100FA4000A128A112D250A128A1108300A128A118E
:100FB40052250A128A11831203132F08A501A507CB
:100FC4002E08A401A4070A128A116C260A128A1197
:100FD400013083120313A0000030A1007330A2007B
:100FE4000030A3000A128A112D250A128A114A2FF1
:0C0FF4004A2F4A2F4A2F0A128A110028A7
:02400E00E42CA0
:00000001FF
