:060000000A128A11122809
:10000800FE00030EF2000408F3000A08F40083124D
:1000180003137F08F5000A128A1161280A128A114F
:10002800AD2883120313860101308316031386005B
:100038008312031388018316031388018316031799
:10004800890188010B168B17F801F9017908803AA4
:10005800FF0080307F02031D33280A307802031C1A
:100068003628372839285E285E287808203E8400FC
:10007800831300088312031388004030AA0042301B
:10008800AB000A128A11C3200A128A110130F8073C
:100098000318F90A0030F9077908803AFF00803020
:1000A8007F02031D59280A307802031C5C285D284A
:1000B80039285E280A128A1112288B1C64286528A0
:1000C8009F287908F701F7077808F601F6077708F7
:1000D800803AFF0080307F02031D742801307602C9
:1000E8000318772878287A289F289F287608203EA2
:1000F8008400831300088312031388004030F00043
:100108004230F1000A128A11D9200A128A11FF30EE
:10011800F6070318F70AFF30F7077708803AFF0059
:1001280080307F02031D9A280130760203189D282B
:100138009E287A289F288B10750883120313FF00C6
:1001480074088A0073088400720E8300FE0E7E0E07
:100158000900F801F901FA01FB0183132A30FD00B7
:100168000130FE000030FF00203084000A128A119E
:10017800F1200A128A1183010A128A111528C5284A
:10018800C528013083120313AA020030031CAB03F5
:10019800AB02FF302B06031DD328FF302A06031DB0
:1001A800D628D728C528D8280800DB28DB2801301E
:1001B800F0020030031CF103F102FF307106031D49
:1001C800E728FF307006031DEA28EB28DB28EC2817
:1001D80008007E088A007F0882000A128A11ED2032
:1001E8000A128A118000840A04087D060319003463
:1001F800FF0A0319FE0AF1283F3406345B344F34F2
:0C02080066346D347D3407347F346F346D
:02400E00E42CA0
:00000001FF
