:060000000A128A11022F12
:100DDA00483445344C344C344F34F42EF42E01301C
:100DEA00F5020030031CF603F60276087504031DAB
:100DFA00FF2E002FF42E012F08000A128A11ED2669
:100E0A000A128A11F0000A128A11EE260A128A11AF
:100E1A00F1000A128A11EF260A128A11F2000A1246
:100E2A008A11F0260A128A11F3000A128A11F1268F
:100E3A000A128A11F40083010A128A11242F8312DA
:100E4A000313880189018316031388018901831614
:100E5A0003178901880183120313091038308800A7
:100E6A008914E830F5000330F6000A128A11F226D6
:100E7A000A128A11831203138910E830F50003302D
:100E8A00F6000A128A11F2260A128A118312031331
:100E9A0009100E3088008914E830F5000330F60096
:100EAA000A128A11F2260A128A118312031389106E
:100EBA00E830F5000330F6000A128A11F2260A1207
:100ECA008A11831203130910803088008914E830CC
:100EDA00F5000330F6000A128A11F2260A128A1164
:100EEA00831203138910E830F5000330F6000A1262
:100EFA008A11F2260A128A11822F83120313091009
:100F0A00013088008914E830F5000330F6000A122F
:100F1A008A11F2260A128A11831203138910E83001
:100F2A00F5000330F6000A128A11F2260A128A1113
:100F3A001030F5002730F6000A128A11F2260A123A
:100F4A008A111030F5002730F6000A128A11F226AB
:100F5A000A128A11F701F8017808803AFF008030F6
:100F6A007F02031DBA2F05307702031CBD2FBE2F47
:100F7A00C02F822F822F8312031309147708703E21
:100F8A008400000888008914E830F5000330F60070
:100F9A000A128A11F2260A128A118312031389107D
:100FAA00E830F5000330F6000A128A11F2260A1216
:100FBA008A111030F5002730F6000A128A11F2263B
:100FCA000A128A110130F7070318F80A0030F807E5
:100FDA007808803AFF0080307F02031DF62F053023
:100FEA007702031CF92FFA2FC02F822F822F822F0C
:060FFA000A128A11002812
:02400E00E42CA0
:00000001FF
