:060000000A128A11F82F1C
:100C1E000130F0020030031CF103F1027008710480
:100C2E00031D1A2E1B2E0F2E08007108F3007008DC
:100C3E00F2000310F30CF20C0310F30CF20C72081A
:100C4E00831203139500971270182E2E322E8312D4
:100C5E0003131716352E831203131712080083126F
:100C6E00031320183B2E3F2E831203130914422E1A
:100C7E008312031309102208880089146430F000CF
:100C8E000030F1000A128A110F260A128A118312FD
:100C9E00031389106430F0000030F1000A128A113B
:100CAE000F260A128A110800780879040319602E9B
:100CBE00612E902EFD01FD0A6F2E01300310F80DEE
:100CCE00F90DFF3E031D652E0130FC007C08FD076B
:100CDE00F91F722E732E642E79087B02031D792E56
:100CEE0078087A02031C7C2E7D2E832E7808FA0259
:100CFE007908031CFB03FB0201300310F90CF80CFE
:100D0E00FF3E031D842E0130FD02031D8F2E902EFB
:100D1E00732E7B08F9007A08F8000800F501F60139
:100D2E007008710403199C2E9D2ED42EF701F70A1C
:100D3E00AB2E01300310F00DF10DFF3E031DA12E61
:100D4E000130F4007408F707F11FAE2EAF2EA02E5F
:100D5E0001300310F50DF60DFF3E031DB02E710888
:100D6E007302031DBC2E70087202031CBF2EC02E10
:100D7E00C72E7008F2027108031CF303F3027514F8
:100D8E0001300310F10CF00CFF3E031DC82E013094
:100D9E00F702031DD32ED42EAF2E7608F100750860
:100DAE00F00008008312031387018901880183165E
:100DBE000313870189018801831203138501013012
:100DCE0083160313850001308316031788008901EB
:100DDE008130831203139F008030831603139F000C
:100DEE00053083120313920091017C308316031396
:100DFE0092000C308312031397000030A000A10064
:100E0E003830A2000030A3000A128A1136260A12C8
:100E1E008A11003083120313A000A1000E30A2002D
:100E2E000030A3000A128A1136260A128A110030E7
:100E3E0083120313A000A1000C30A2000030A30007
:100E4E000A128A1136260A128A11831203139F146C
:100E5E009F18322F332F2F2F1E08A5008316031332
:100E6E001E0883120313A4002508F1002408F000C5
:100E7E000A128A111C260A128A11003083120313D9
:100E8E00A000A1008030A2000030A3000A128A1137
:100E9E0036260A128A11013083120313A000003085
:100EAE00A100E830F0000330F1002508F30024081B
:100EBE00F2000A128A1195260A128A117008303E23
:100ECE0083120313A20071080318013E003EA30013
:100EDE000A128A1136260A128A110130831203135E
:100EEE00A0000030A1000A30F8000030F900643094
:100EFE00F0000030F1002508F3002408F2000A1279
:100F0E008A1195260A128A117108FB007008FA00E0
:100F1E000A128A115B260A128A117808303E831251
:100F2E000313A20079080318013E003EA3000A1223
:100F3E008A1136260A128A11013083120313A00079
:100F4E000030A1000A30F8000030F9000A30F0003D
:100F5E000030F1002508F3002408F2000A128A116D
:100F6E0095260A128A117108FB007008FA000A12FF
:100F7E008A115B260A128A117808303E83120313F7
:100F8E00A20079080318013E003EA3000A128A113E
:100F9E0036260A128A11013083120313A000003084
:100FAE00A1000A30F8000030F9002508FB002408E3
:100FBE00FA000A128A115B260A128A117808303E4C
:100FCE0083120313A20079080318013E003EA3000A
:100FDE000A128A1136260A128A112C2F0A128A1127
:100FEE00002883120313A401A50183010A128A119A
:020FFE00D92EEA
:08400000FF3FFF3FFF3FFF3FC0
:04400E00E42CFF3F60
:00000001FF
