:060000000A128A11FA2F1A
:100F86008312031385018316031385018316031742
:100F9600890188012F3083120313920091017C305E
:100FA60083160313920083128C1CDA2FDB2FE32F98
:100FB6000130F0070318F10A0030F1078C10910197
:100FC600643070067104031DE92FEA2FEC2F051417
:100FD600D62FC83070067104031DF22FF32FD62FBB
:100FE6000510F001F101D62F0A128A110028F0012E
:0A0FF600F10183010A128A11C32FD2
:08400000FF3FFF3FFF3FFF3FC0
:04400E00E42CFF3F60
:00000001FF
