:060000000A128A11F82F1C
:10097E000130F0020030031CF103F1027008710423
:10098E00031DCA2CCB2CBF2C08007108F300700875
:10099E00F2000310F30CF20C0310F30CF20C7208BD
:1009AE0083120313950097127018DE2CE22C83121B
:1009BE0003131716E52C8312031317120800831264
:1009CE0003132218EB2CEF2C831203130914F22CB1
:1009DE008312031309102408880089146430F00070
:1009EE000030F1000A128A11BF240A128A118312F2
:1009FE00031389106430F0000030F1000A128A11DE
:100A0E00BF240A128A110800003083120313A300B8
:100A1E000030A2000330A100FF30A0003308F00028
:100A2E003408F100F201F3010030F7000030F60057
:100A3E001330F5008830F4000A128A1142250A128A
:100A4E008A11730883120313A7007208A600710897
:100A5E00A5007008A4000A128A114A260A128A11E9
:100A6E00831203132108B0002008AF003008AE0037
:100A7E002F08AD0008000030FC000030FB000030F5
:100A8E00FA000030F900701C4D2D4E2D652D7408A6
:100A9E00F907750803110318013E0319572DFA07BC
:100AAE00760803110318013E03195E2DFB07770824
:100ABE0003110318013E0319652DFC070130F800E0
:100ACE000310F40DF50DF60DF70DF80B672D013033
:100ADE000310F30CF20CF10CF00CFF3E031D6F2D06
:100AEE007308720471047004031D7E2D7F2D4A2D30
:100AFE007C08F3007B08F2007A08F1007908F00018
:100B0E00080083120313A101FC1F8E2D8F2D962D2D
:100B1E00FB09FC09FB0A0319FC0AA101A10AFA1F31
:100B2E00992D9A2D9F2DF909FA09F90A0319FA0A36
:100B3E0079087A040319A42DA52DD42DA001A00A9D
:100B4E00B32D01300310F90DFA0DFF3E031DA92D33
:100B5E000130FD007D08A007FA1FB62DB72DA82D78
:100B6E007A087C02031DBD2D79087B02031CC02D63
:100B7E00C12DC72D7908FB027A08031CFC03FC0269
:100B8E0001300310FA0CF90CFF3E031DC82D013085
:100B9E00A002031DD32DD42DB72D21080319D82D56
:100BAE00D92DDE2DFB09FC09FB0A0319FC0A7C0872
:100BBE00FA007B08F9000800F601F11FE72DE82D79
:100BCE00EF2DF009F109F00A0319F10AF601F60A00
:100BDE00F31FF22DF32DFC2DF209F309F20A03197E
:100BEE00F30A0130F4007408F606F701F8017008F4
:100BFE0071040319032E042E3B2EF501F50A122E55
:100C0E0001300310F00DF10DFF3E031D082E0130D3
:100C1E00F4007408F507F11F152E162E072E01305D
:100C2E000310F70DF80DFF3E031D172E710873020A
:100C3E00031D232E70087202031C262E272E2E2E25
:100C4E007008F2027108031CF303F30277140130EB
:100C5E000310F10CF00CFF3E031D2F2E0130F50298
:100C6E00031D3A2E3B2E162E760803193F2E402ECC
:100C7E00452EF709F809F70A0319F80A7808F10062
:100C8E007708F0000800003083120313AB00003029
:100C9E00AA000030A9000030A80023082204210475
:100CAE00200403195B2E5C2EA92EAC01AC0A6C2E0F
:100CBE000130FD000310A00DA10DA20DA30DFD0B23
:100CCE00612E0130FD007D08AC07A31F6F2E702E24
:100CDE005F2E0130FD000310A80DA90DAA0DAB0D5E
:100CEE00FD0B722E23082702031D872E22082602D3
:100CFE00031D872E21082502031D872E200824029E
:100D0E00031C8A2E8B2E9A2E2008A4022108031C67
:100D1E00210FA5022208031C220FA6022308031C82
:100D2E00230FA702281401300310A30CA20CA10C50
:100D3E00A00CFF3E031D9B2E0130AC02031DA82EFE
:100D4E00A92E702E2B08A3002A08A2002908A100A4
:100D5E002808A00008008312031387018901880167
:100D6E0083160313870189018801831203138501FA
:100D7E000130831603138500013083160317880094
:100D8E0089018130831203139F0080308316031371
:100D9E009F00053083120313920091017C3083165D
:100DAE00031392000C308312031397000030A2003D
:100DBE00A3003830A4000030A5000A128A11E624E0
:100DCE000A128A11003083120313A200A3000E3000
:100DDE00A4000030A5000A128A11E6240A128A1114
:100DEE00003083120313A200A3000C30A4000030C5
:100DFE00A5000A128A11E6240A128A11831203131D
:100E0E009F149F180B2F0C2F082F1E08B40083164B
:100E1E0003131E0883120313B3003408F1003308C2
:100E2E00F0000A128A11CC240A128A110A128A11AF
:100E3E000B250A128A11831203132E08B2002D08F5
:100E4E00B1000030A200A3008030A4000030A50045
:100E5E000A128A11E6240A128A1101308312031330
:100E6E00A2000030A300E830F0000330F100320899
:100E7E00F3003108F2000A128A11E3250A128A11D0
:100E8E007008303E83120313A40071080318013E4C
:100E9E00003EA5000A128A11E6240A128A110130B8
:100EAE0083120313A2000030A3000A30F9000030B1
:100EBE00FA006430F0000030F1003208F30031081F
:100ECE00F2000A128A11E3250A128A117108FC0037
:100EDE007008FB000A128A1188250A128A117908F5
:100EEE00303E83120313A4007A080318013E003E1D
:100EFE00A5000A128A11E6240A128A110130831201
:100F0E000313A2000030A3000A30F9000030FA00EB
:100F1E000A30F0000030F1003208F3003108F20020
:100F2E000A128A11E3250A128A117108FC00700850
:100F3E00FB000A128A1188250A128A117908303E9E
:100F4E0083120313A4007A080318013E003EA50085
:100F5E000A128A11E6240A128A110130831203132F
:100F6E00A2000030A3002E30A4000030A5000A120B
:100F7E008A11E6240A128A11013083120313A20089
:100F8E000030A3000A30F9000030FA003208FC00ED
:100F9E003108FB000A128A1188250A128A11790873
:100FAE00303E83120313A4007A080318013E003E5C
:100FBE00A5000A128A11E6240A128A110130831240
:100FCE000313A2000030A3004330A4000030A5009C
:100FDE000A128A11E6240A128A11052F0A128A11A0
:100FEE00002883120313B301B40183010A128A117C
:020FFE00B22E11
:08400000FF3FFF3FFF3FFF3FC0
:04400E00E42CFF3F60
:00000001FF
