:060000000A128A11C42F50
:100F880083010A128A11DC2FCA2FCA2F0130F002FE
:100F98000030031CF103F102FF307106031DD62F48
:100FA800FF307006031DD92FDA2FCA2FDB2F080058
:100FB800831203138801831603138801E32F831216
:100FC80003130814A030F0008630F1000A128A11C9
:100FD800C8270A128A11831203130810A030F000E0
:100FE8008630F1000A128A11C8270A128A11E32FE3
:080FF800E32F0A128A11002800
:02400E00E42CA0
:00000001FF
