:060000000A128A11FB2F19
:100EBA000130F0020030031CF103F10270087104E2
:100ECA00031D682F692F5D2F080072186D2F712F6F
:100EDA00831203130914742F83120313091074085D
:100EEA00880089140A30F0000030F1000A128A11D1
:100EFA005D270A128A118312031389100A30F0003F
:100F0A000030F1000A128A115D270A128A110800BC
:100F1A008312031388018701890183160313880149
:100F2A00890180308700831603178901880183129B
:100F3A000313181683160313181283120313981730
:100F4A00831603131815831603178711193083168E
:100F5A00031399000030F200F3003830F400003037
:100F6A00F5000A128A116A270A128A110030F20061
:100F7A00F3000E30F4000030F5000A128A116A27D5
:100F8A000A128A110030F200F300E030F400003057
:100F9A00F5000A128A116A270A128A110030F20031
:100FAA00F3008030F4000030F5000A128A116A2733
:100FBA000A128A11831203138C1EE42FE52FDF2FE6
:100FCA001A08F8000130F2000030F3007808F60041
:100FDA00F7017608F4007708F5000A128A116A27E1
:100FEA000A128A11DF2F0A128A110028F8018301D6
:060FFA000A128A118D2F7E
:08400000FF3FFF3FFF3FFF3FC0
:04400E00E42CFF3F60
:00000001FF
