:060000000A128A11F12F23
:100E620064008001840A0406031900340406322F48
:100E72000130F0020030031CF103F102700871042A
:100E8200031D442F452F392F08007218492F4D2F6B
:100E9200831203130914502F8312031309107408C9
:100EA200880089140A30F0000030F1000A128A1119
:100EB20039270A128A118312031389100A30F000AB
:100EC2000030F1000A128A1139270A128A11080029
:100ED2008312031389018701880183160313890191
:100EE20088018030870083160317890188018711E2
:100EF2001930831603139900181218158316031755
:100F0200871183120313981718160030F200F300AA
:100F12003830F4000030F5000A128A1146270A120E
:100F22008A110030F200F3000E30F4000030F500B8
:100F32000A128A1146270A128A110030F200F300BF
:100F42008030F4000030F5000A128A1146270A1296
:100F52008A11831203138C1EAF2FB02FAA2F7A0887
:100F6200203E84001A08831380007A08203E840001
:100F72000D300006031DBE2FBF2FE72FF801F90128
:100F8200DB2F0130F2000030F3007808203E8400AD
:100F92000008F600F7017608F4007708F5000A1257
:100FA2008A1146270A128A110130F8070318F90A32
:100FB2000030F9077808203E840083130008031DDF
:100FC200E32FE42FC22FFA01FB01AA2F0130FA0707
:100FD2000318FB0A0030FB07AA2F0A128A11002805
:100FE200FA01FB0183132030840040300A128A1177
:0E0FF20031270A128A1183010A128A11692F0F
:08400000FF3FFF3FFF3FFF3FC0
:04400E00E42CFF3F60
:00000001FF
