:060000000A128A11FA2F1A
:100F62008312031385018316031385013130831223
:100F72000313900083160317890188018312031358
:100F82000C1CC42FC52FD02F0130F0070318F10A13
:100F92000030F1070B308F00DC308E000C1070082F
:100FA2007104031DD52FD62FD92F851105110514D4
:100FB200043070067104031DDF2FE02FE32F0511AB
:100FC200051085140A3070067104031DE92FEA2FFB
:100FD200ED2F0510851005150E3070067104031DE6
:100FE200F32FF42FBF2FF001F101BF2F0A128A1144
:0E0FF2000028F001F10183010A128A11B12FCB
:08400000FF3FFF3FFF3FFF3FC0
:04400E00E42CFF3F60
:00000001FF
