:060000000A128A11B22F62
:100F640083010A128A11CA2FB82FB82F0130F00258
:100F74000030031CF103F102FF307106031DC42F7E
:100F8400FF307006031DC72FC82FB82FC92F0800C4
:100F94008312031388018316031388018312031336
:100FA4008501013083160313850083160317890115
:100FB4008801DC2F83120313051CE12FE22FEE2F8F
:100FC400FF308800E830F0000330F1000A128A1183
:100FD400B6270A128A11DC2F831203138801E83022
:100FE400F0000330F1000A128A11B6270A128A119E
:0C0FF400DC2FDC2FDC2F0A128A110028F1
:02400E00E42CA0
:00000001FF
